{
  "contractName": "LuciToken",
  "abi": [
    {
      "inputs": [],
      "stateMutability": "nonpayable",
      "type": "constructor"
    },
    {
      "anonymous": false,
      "inputs": [
        {
          "indexed": true,
          "internalType": "address",
          "name": "owner",
          "type": "address"
        },
        {
          "indexed": true,
          "internalType": "address",
          "name": "spender",
          "type": "address"
        },
        {
          "indexed": false,
          "internalType": "uint256",
          "name": "value",
          "type": "uint256"
        }
      ],
      "name": "Approval",
      "type": "event"
    },
    {
      "anonymous": false,
      "inputs": [
        {
          "indexed": true,
          "internalType": "address",
          "name": "previousOwner",
          "type": "address"
        },
        {
          "indexed": true,
          "internalType": "address",
          "name": "newOwner",
          "type": "address"
        }
      ],
      "name": "OwnershipTransferred",
      "type": "event"
    },
    {
      "anonymous": false,
      "inputs": [
        {
          "indexed": true,
          "internalType": "address",
          "name": "from",
          "type": "address"
        },
        {
          "indexed": true,
          "internalType": "address",
          "name": "to",
          "type": "address"
        },
        {
          "indexed": false,
          "internalType": "uint256",
          "name": "value",
          "type": "uint256"
        }
      ],
      "name": "Transfer",
      "type": "event"
    },
    {
      "inputs": [
        {
          "internalType": "address",
          "name": "owner",
          "type": "address"
        },
        {
          "internalType": "address",
          "name": "spender",
          "type": "address"
        }
      ],
      "name": "allowance",
      "outputs": [
        {
          "internalType": "uint256",
          "name": "",
          "type": "uint256"
        }
      ],
      "stateMutability": "view",
      "type": "function",
      "constant": true
    },
    {
      "inputs": [
        {
          "internalType": "address",
          "name": "spender",
          "type": "address"
        },
        {
          "internalType": "uint256",
          "name": "amount",
          "type": "uint256"
        }
      ],
      "name": "approve",
      "outputs": [
        {
          "internalType": "bool",
          "name": "",
          "type": "bool"
        }
      ],
      "stateMutability": "nonpayable",
      "type": "function"
    },
    {
      "inputs": [
        {
          "internalType": "address",
          "name": "account",
          "type": "address"
        }
      ],
      "name": "balanceOf",
      "outputs": [
        {
          "internalType": "uint256",
          "name": "",
          "type": "uint256"
        }
      ],
      "stateMutability": "view",
      "type": "function",
      "constant": true
    },
    {
      "inputs": [],
      "name": "cap",
      "outputs": [
        {
          "internalType": "uint256",
          "name": "",
          "type": "uint256"
        }
      ],
      "stateMutability": "view",
      "type": "function",
      "constant": true
    },
    {
      "inputs": [],
      "name": "decimals",
      "outputs": [
        {
          "internalType": "uint8",
          "name": "",
          "type": "uint8"
        }
      ],
      "stateMutability": "view",
      "type": "function",
      "constant": true
    },
    {
      "inputs": [
        {
          "internalType": "address",
          "name": "spender",
          "type": "address"
        },
        {
          "internalType": "uint256",
          "name": "subtractedValue",
          "type": "uint256"
        }
      ],
      "name": "decreaseAllowance",
      "outputs": [
        {
          "internalType": "bool",
          "name": "",
          "type": "bool"
        }
      ],
      "stateMutability": "nonpayable",
      "type": "function"
    },
    {
      "inputs": [
        {
          "internalType": "address",
          "name": "spender",
          "type": "address"
        },
        {
          "internalType": "uint256",
          "name": "addedValue",
          "type": "uint256"
        }
      ],
      "name": "increaseAllowance",
      "outputs": [
        {
          "internalType": "bool",
          "name": "",
          "type": "bool"
        }
      ],
      "stateMutability": "nonpayable",
      "type": "function"
    },
    {
      "inputs": [],
      "name": "name",
      "outputs": [
        {
          "internalType": "string",
          "name": "",
          "type": "string"
        }
      ],
      "stateMutability": "view",
      "type": "function",
      "constant": true
    },
    {
      "inputs": [],
      "name": "owner",
      "outputs": [
        {
          "internalType": "address",
          "name": "",
          "type": "address"
        }
      ],
      "stateMutability": "view",
      "type": "function",
      "constant": true
    },
    {
      "inputs": [],
      "name": "renounceOwnership",
      "outputs": [],
      "stateMutability": "nonpayable",
      "type": "function"
    },
    {
      "inputs": [
        {
          "internalType": "address",
          "name": "",
          "type": "address"
        }
      ],
      "name": "stakeInitTime",
      "outputs": [
        {
          "internalType": "uint256",
          "name": "",
          "type": "uint256"
        }
      ],
      "stateMutability": "view",
      "type": "function",
      "constant": true
    },
    {
      "inputs": [],
      "name": "symbol",
      "outputs": [
        {
          "internalType": "string",
          "name": "",
          "type": "string"
        }
      ],
      "stateMutability": "view",
      "type": "function",
      "constant": true
    },
    {
      "inputs": [],
      "name": "totalSupply",
      "outputs": [
        {
          "internalType": "uint256",
          "name": "",
          "type": "uint256"
        }
      ],
      "stateMutability": "view",
      "type": "function",
      "constant": true
    },
    {
      "inputs": [
        {
          "internalType": "address",
          "name": "to",
          "type": "address"
        },
        {
          "internalType": "uint256",
          "name": "amount",
          "type": "uint256"
        }
      ],
      "name": "transfer",
      "outputs": [
        {
          "internalType": "bool",
          "name": "",
          "type": "bool"
        }
      ],
      "stateMutability": "nonpayable",
      "type": "function"
    },
    {
      "inputs": [
        {
          "internalType": "address",
          "name": "from",
          "type": "address"
        },
        {
          "internalType": "address",
          "name": "to",
          "type": "address"
        },
        {
          "internalType": "uint256",
          "name": "amount",
          "type": "uint256"
        }
      ],
      "name": "transferFrom",
      "outputs": [
        {
          "internalType": "bool",
          "name": "",
          "type": "bool"
        }
      ],
      "stateMutability": "nonpayable",
      "type": "function"
    },
    {
      "inputs": [
        {
          "internalType": "address",
          "name": "newOwner",
          "type": "address"
        }
      ],
      "name": "transferOwnership",
      "outputs": [],
      "stateMutability": "nonpayable",
      "type": "function"
    },
    {
      "inputs": [
        {
          "internalType": "address[]",
          "name": "addList",
          "type": "address[]"
        },
        {
          "internalType": "uint256[]",
          "name": "balList",
          "type": "uint256[]"
        }
      ],
      "name": "IssueRewards",
      "outputs": [],
      "stateMutability": "nonpayable",
      "type": "function"
    },
    {
      "inputs": [
        {
          "internalType": "address",
          "name": "Treasury",
          "type": "address"
        }
      ],
      "name": "TransferTreasuryShare",
      "outputs": [],
      "stateMutability": "nonpayable",
      "type": "function"
    }
  ],
  "bytecode": "0x60a060405268056bc75e2d6310000060075560006008553480156200002357600080fd5b506007546040518060400160405280600c81526020017f4c756369204372656469747300000000000000000000000000000000000000008152506040518060400160405280600481526020017f4c554349000000000000000000000000000000000000000000000000000000008152508160039080519060200190620000ab9291906200020a565b508060049080519060200190620000c49291906200020a565b505050600081116200010d576040517f08c379a00000000000000000000000000000000000000000000000000000000081526004016200010490620002e1565b60405180910390fd5b806080818152505050620001366200012a6200013c60201b60201c565b6200014460201b60201c565b620003a2565b600033905090565b6000600560009054906101000a900473ffffffffffffffffffffffffffffffffffffffff16905081600560006101000a81548173ffffffffffffffffffffffffffffffffffffffff021916908373ffffffffffffffffffffffffffffffffffffffff1602179055508173ffffffffffffffffffffffffffffffffffffffff168173ffffffffffffffffffffffffffffffffffffffff167f8be0079c531659141344cd1fd0a4f28419497f9722a3daafe3b4186f6b6457e060405160405180910390a35050565b828054620002189062000314565b90600052602060002090601f0160209004810192826200023c576000855562000288565b82601f106200025757805160ff191683800117855562000288565b8280016001018555821562000288579182015b82811115620002875782518255916020019190600101906200026a565b5b5090506200029791906200029b565b5090565b5b80821115620002b65760008160009055506001016200029c565b5090565b6000620002c960158362000303565b9150620002d68262000379565b602082019050919050565b60006020820190508181036000830152620002fc81620002ba565b9050919050565b600082825260208201905092915050565b600060028204905060018216806200032d57607f821691505b602082108114156200034457620003436200034a565b5b50919050565b7f4e487b7100000000000000000000000000000000000000000000000000000000600052602260045260246000fd5b7f45524332304361707065643a2063617020697320300000000000000000000000600082015250565b608051611ee5620003be60003960006104c00152611ee56000f3fe608060405234801561001057600080fd5b50600436106101165760003560e01c806370a08231116100a2578063a457c2d711610071578063a457c2d7146102e5578063a9059cbb14610315578063a91da0ef14610345578063dd62ed3e14610361578063f2fde38b1461039157610116565b806370a082311461026f578063715018a61461029f5780638da5cb5b146102a957806395d89b41146102c757610116565b806323b872dd116100e957806323b872dd146101b7578063313ce567146101e7578063355274ea146102055780633950935114610223578063448a81371461025357610116565b806306fdde031461011b578063095ea7b3146101395780630b1c01fa1461016957806318160ddd14610199575b600080fd5b6101236103ad565b6040516101309190611638565b60405180910390f35b610153600480360381019061014e9190611341565b61043f565b604051610160919061161d565b60405180910390f35b610183600480360381019061017e919061128d565b610462565b60405161019091906117da565b60405180910390f35b6101a161047a565b6040516101ae91906117da565b60405180910390f35b6101d160048036038101906101cc91906112f2565b610484565b6040516101de919061161d565b60405180910390f35b6101ef6104b3565b6040516101fc91906117f5565b60405180910390f35b61020d6104bc565b60405161021a91906117da565b60405180910390f35b61023d60048036038101906102389190611341565b6104e4565b60405161024a919061161d565b60405180910390f35b61026d6004803603810190610268919061137d565b61051b565b005b6102896004803603810190610284919061128d565b610611565b60405161029691906117da565b60405180910390f35b6102a7610659565b005b6102b161066d565b6040516102be9190611602565b60405180910390f35b6102cf610697565b6040516102dc9190611638565b60405180910390f35b6102ff60048036038101906102fa9190611341565b610729565b60405161030c919061161d565b60405180910390f35b61032f600480360381019061032a9190611341565b6107a0565b60405161033c919061161d565b60405180910390f35b61035f600480360381019061035a919061128d565b6107c3565b005b61037b600480360381019061037691906112b6565b610846565b60405161038891906117da565b60405180910390f35b6103ab60048036038101906103a6919061128d565b6108cd565b005b6060600380546103bc90611a12565b80601f01602080910402602001604051908101604052809291908181526020018280546103e890611a12565b80156104355780601f1061040a57610100808354040283529160200191610435565b820191906000526020600020905b81548152906001019060200180831161041857829003601f168201915b5050505050905090565b60008061044a610951565b9050610457818585610959565b600191505092915050565b60066020528060005260406000206000915090505481565b6000600254905090565b60008061048f610951565b905061049c858285610b24565b6104a7858585610bb0565b60019150509392505050565b60006012905090565b60007f0000000000000000000000000000000000000000000000000000000000000000905090565b6000806104ef610951565b90506105108185856105018589610846565b61050b91906118a9565b610959565b600191505092915050565b610523610e28565b60008251905060005b8181101561060b57600084828151811061056f577f4e487b7100000000000000000000000000000000000000000000000000000000600052603260045260246000fd5b6020026020010151905060008483815181106105b4577f4e487b7100000000000000000000000000000000000000000000000000000000600052603260045260246000fd5b602002602001015190506000633b9aca00826105d09190611930565b905080600860008282546105e491906118a9565b925050819055506105f58382610ea6565b505050808061060390611a75565b91505061052c565b50505050565b60008060008373ffffffffffffffffffffffffffffffffffffffff1673ffffffffffffffffffffffffffffffffffffffff168152602001908152602001600020549050919050565b610661610e28565b61066b6000610f10565b565b6000600560009054906101000a900473ffffffffffffffffffffffffffffffffffffffff16905090565b6060600480546106a690611a12565b80601f01602080910402602001604051908101604052809291908181526020018280546106d290611a12565b801561071f5780601f106106f45761010080835404028352916020019161071f565b820191906000526020600020905b81548152906001019060200180831161070257829003601f168201915b5050505050905090565b600080610734610951565b905060006107428286610846565b905083811015610787576040517f08c379a000000000000000000000000000000000000000000000000000000000815260040161077e9061179a565b60405180910390fd5b6107948286868403610959565b60019250505092915050565b6000806107ab610951565b90506107b8818585610bb0565b600191505092915050565b6107cb610e28565b60006008541415610811576040517f08c379a00000000000000000000000000000000000000000000000000000000081526004016108089061171a565b60405180910390fd5b60006064600854601e6108249190611930565b61082e91906118ff565b905061083a8282610ea6565b60006008819055505050565b6000600160008473ffffffffffffffffffffffffffffffffffffffff1673ffffffffffffffffffffffffffffffffffffffff16815260200190815260200160002060008373ffffffffffffffffffffffffffffffffffffffff1673ffffffffffffffffffffffffffffffffffffffff16815260200190815260200160002054905092915050565b6108d5610e28565b600073ffffffffffffffffffffffffffffffffffffffff168173ffffffffffffffffffffffffffffffffffffffff161415610945576040517f08c379a000000000000000000000000000000000000000000000000000000000815260040161093c9061167a565b60405180910390fd5b61094e81610f10565b50565b600033905090565b600073ffffffffffffffffffffffffffffffffffffffff168373ffffffffffffffffffffffffffffffffffffffff1614156109c9576040517f08c379a00000000000000000000000000000000000000000000000000000000081526004016109c09061177a565b60405180910390fd5b600073ffffffffffffffffffffffffffffffffffffffff168273ffffffffffffffffffffffffffffffffffffffff161415610a39576040517f08c379a0000000000000000000000000000000000000000000000000000000008152600401610a309061169a565b60405180910390fd5b80600160008573ffffffffffffffffffffffffffffffffffffffff1673ffffffffffffffffffffffffffffffffffffffff16815260200190815260200160002060008473ffffffffffffffffffffffffffffffffffffffff1673ffffffffffffffffffffffffffffffffffffffff168152602001908152602001600020819055508173ffffffffffffffffffffffffffffffffffffffff168373ffffffffffffffffffffffffffffffffffffffff167f8c5be1e5ebec7d5bd14f71427d1e84f3dd0314c0f7b2291e5b200ac8c7c3b92583604051610b1791906117da565b60405180910390a3505050565b6000610b308484610846565b90507fffffffffffffffffffffffffffffffffffffffffffffffffffffffffffffffff8114610baa5781811015610b9c576040517f08c379a0000000000000000000000000000000000000000000000000000000008152600401610b93906116ba565b60405180910390fd5b610ba98484848403610959565b5b50505050565b600073ffffffffffffffffffffffffffffffffffffffff168373ffffffffffffffffffffffffffffffffffffffff161415610c20576040517f08c379a0000000000000000000000000000000000000000000000000000000008152600401610c179061173a565b60405180910390fd5b600073ffffffffffffffffffffffffffffffffffffffff168273ffffffffffffffffffffffffffffffffffffffff161415610c90576040517f08c379a0000000000000000000000000000000000000000000000000000000008152600401610c879061165a565b60405180910390fd5b610c9b838383610fd6565b60008060008573ffffffffffffffffffffffffffffffffffffffff1673ffffffffffffffffffffffffffffffffffffffff16815260200190815260200160002054905081811015610d21576040517f08c379a0000000000000000000000000000000000000000000000000000000008152600401610d18906116da565b60405180910390fd5b8181036000808673ffffffffffffffffffffffffffffffffffffffff1673ffffffffffffffffffffffffffffffffffffffff16815260200190815260200160002081905550816000808573ffffffffffffffffffffffffffffffffffffffff1673ffffffffffffffffffffffffffffffffffffffff168152602001908152602001600020600082825401925050819055508273ffffffffffffffffffffffffffffffffffffffff168473ffffffffffffffffffffffffffffffffffffffff167fddf252ad1be2c89b69c2b068fc378daa952ba7f163c4a11628f55a4df523b3ef84604051610e0f91906117da565b60405180910390a3610e22848484610fdb565b50505050565b610e30610951565b73ffffffffffffffffffffffffffffffffffffffff16610e4e61066d565b73ffffffffffffffffffffffffffffffffffffffff1614610ea4576040517f08c379a0000000000000000000000000000000000000000000000000000000008152600401610e9b906116fa565b60405180910390fd5b565b610eae6104bc565b81610eb761047a565b610ec191906118a9565b1115610f02576040517f08c379a0000000000000000000000000000000000000000000000000000000008152600401610ef99061175a565b60405180910390fd5b610f0c8282610fe0565b5050565b6000600560009054906101000a900473ffffffffffffffffffffffffffffffffffffffff16905081600560006101000a81548173ffffffffffffffffffffffffffffffffffffffff021916908373ffffffffffffffffffffffffffffffffffffffff1602179055508173ffffffffffffffffffffffffffffffffffffffff168173ffffffffffffffffffffffffffffffffffffffff167f8be0079c531659141344cd1fd0a4f28419497f9722a3daafe3b4186f6b6457e060405160405180910390a35050565b505050565b505050565b600073ffffffffffffffffffffffffffffffffffffffff168273ffffffffffffffffffffffffffffffffffffffff161415611050576040517f08c379a0000000000000000000000000000000000000000000000000000000008152600401611047906117ba565b60405180910390fd5b61105c60008383610fd6565b806002600082825461106e91906118a9565b92505081905550806000808473ffffffffffffffffffffffffffffffffffffffff1673ffffffffffffffffffffffffffffffffffffffff168152602001908152602001600020600082825401925050819055508173ffffffffffffffffffffffffffffffffffffffff16600073ffffffffffffffffffffffffffffffffffffffff167fddf252ad1be2c89b69c2b068fc378daa952ba7f163c4a11628f55a4df523b3ef8360405161111f91906117da565b60405180910390a361113360008383610fdb565b5050565b600061114a61114584611835565b611810565b9050808382526020820190508285602086028201111561116957600080fd5b60005b85811015611199578161117f888261120f565b84526020840193506020830192505060018101905061116c565b5050509392505050565b60006111b66111b184611861565b611810565b905080838252602082019050828560208602820111156111d557600080fd5b60005b8581101561120557816111eb8882611278565b8452602084019350602083019250506001810190506111d8565b5050509392505050565b60008135905061121e81611e81565b92915050565b600082601f83011261123557600080fd5b8135611245848260208601611137565b91505092915050565b600082601f83011261125f57600080fd5b813561126f8482602086016111a3565b91505092915050565b60008135905061128781611e98565b92915050565b60006020828403121561129f57600080fd5b60006112ad8482850161120f565b91505092915050565b600080604083850312156112c957600080fd5b60006112d78582860161120f565b92505060206112e88582860161120f565b9150509250929050565b60008060006060848603121561130757600080fd5b60006113158682870161120f565b93505060206113268682870161120f565b925050604061133786828701611278565b9150509250925092565b6000806040838503121561135457600080fd5b60006113628582860161120f565b925050602061137385828601611278565b9150509250929050565b6000806040838503121561139057600080fd5b600083013567ffffffffffffffff8111156113aa57600080fd5b6113b685828601611224565b925050602083013567ffffffffffffffff8111156113d357600080fd5b6113df8582860161124e565b9150509250929050565b6113f28161198a565b82525050565b6114018161199c565b82525050565b60006114128261188d565b61141c8185611898565b935061142c8185602086016119df565b61143581611b7a565b840191505092915050565b600061144d602383611898565b915061145882611b8b565b604082019050919050565b6000611470602683611898565b915061147b82611bda565b604082019050919050565b6000611493602283611898565b915061149e82611c29565b604082019050919050565b60006114b6601d83611898565b91506114c182611c78565b602082019050919050565b60006114d9602683611898565b91506114e482611ca1565b604082019050919050565b60006114fc602083611898565b915061150782611cf0565b602082019050919050565b600061151f601983611898565b915061152a82611d19565b602082019050919050565b6000611542602583611898565b915061154d82611d42565b604082019050919050565b6000611565601983611898565b915061157082611d91565b602082019050919050565b6000611588602483611898565b915061159382611dba565b604082019050919050565b60006115ab602583611898565b91506115b682611e09565b604082019050919050565b60006115ce601f83611898565b91506115d982611e58565b602082019050919050565b6115ed816119c8565b82525050565b6115fc816119d2565b82525050565b600060208201905061161760008301846113e9565b92915050565b600060208201905061163260008301846113f8565b92915050565b600060208201905081810360008301526116528184611407565b905092915050565b6000602082019050818103600083015261167381611440565b9050919050565b6000602082019050818103600083015261169381611463565b9050919050565b600060208201905081810360008301526116b381611486565b9050919050565b600060208201905081810360008301526116d3816114a9565b9050919050565b600060208201905081810360008301526116f3816114cc565b9050919050565b60006020820190508181036000830152611713816114ef565b9050919050565b6000602082019050818103600083015261173381611512565b9050919050565b6000602082019050818103600083015261175381611535565b9050919050565b6000602082019050818103600083015261177381611558565b9050919050565b600060208201905081810360008301526117938161157b565b9050919050565b600060208201905081810360008301526117b38161159e565b9050919050565b600060208201905081810360008301526117d3816115c1565b9050919050565b60006020820190506117ef60008301846115e4565b92915050565b600060208201905061180a60008301846115f3565b92915050565b600061181a61182b565b90506118268282611a44565b919050565b6000604051905090565b600067ffffffffffffffff8211156118505761184f611b4b565b5b602082029050602081019050919050565b600067ffffffffffffffff82111561187c5761187b611b4b565b5b602082029050602081019050919050565b600081519050919050565b600082825260208201905092915050565b60006118b4826119c8565b91506118bf836119c8565b9250827fffffffffffffffffffffffffffffffffffffffffffffffffffffffffffffffff038211156118f4576118f3611abe565b5b828201905092915050565b600061190a826119c8565b9150611915836119c8565b92508261192557611924611aed565b5b828204905092915050565b600061193b826119c8565b9150611946836119c8565b9250817fffffffffffffffffffffffffffffffffffffffffffffffffffffffffffffffff048311821515161561197f5761197e611abe565b5b828202905092915050565b6000611995826119a8565b9050919050565b60008115159050919050565b600073ffffffffffffffffffffffffffffffffffffffff82169050919050565b6000819050919050565b600060ff82169050919050565b60005b838110156119fd5780820151818401526020810190506119e2565b83811115611a0c576000848401525b50505050565b60006002820490506001821680611a2a57607f821691505b60208210811415611a3e57611a3d611b1c565b5b50919050565b611a4d82611b7a565b810181811067ffffffffffffffff82111715611a6c57611a6b611b4b565b5b80604052505050565b6000611a80826119c8565b91507fffffffffffffffffffffffffffffffffffffffffffffffffffffffffffffffff821415611ab357611ab2611abe565b5b600182019050919050565b7f4e487b7100000000000000000000000000000000000000000000000000000000600052601160045260246000fd5b7f4e487b7100000000000000000000000000000000000000000000000000000000600052601260045260246000fd5b7f4e487b7100000000000000000000000000000000000000000000000000000000600052602260045260246000fd5b7f4e487b7100000000000000000000000000000000000000000000000000000000600052604160045260246000fd5b6000601f19601f8301169050919050565b7f45524332303a207472616e7366657220746f20746865207a65726f206164647260008201527f6573730000000000000000000000000000000000000000000000000000000000602082015250565b7f4f776e61626c653a206e6577206f776e657220697320746865207a65726f206160008201527f6464726573730000000000000000000000000000000000000000000000000000602082015250565b7f45524332303a20617070726f766520746f20746865207a65726f20616464726560008201527f7373000000000000000000000000000000000000000000000000000000000000602082015250565b7f45524332303a20696e73756666696369656e7420616c6c6f77616e6365000000600082015250565b7f45524332303a207472616e7366657220616d6f756e742065786365656473206260008201527f616c616e63650000000000000000000000000000000000000000000000000000602082015250565b7f4f776e61626c653a2063616c6c6572206973206e6f7420746865206f776e6572600082015250565b7f6572726f723a206e6f20726577617264732070656e64696e6700000000000000600082015250565b7f45524332303a207472616e736665722066726f6d20746865207a65726f20616460008201527f6472657373000000000000000000000000000000000000000000000000000000602082015250565b7f45524332304361707065643a2063617020657863656564656400000000000000600082015250565b7f45524332303a20617070726f76652066726f6d20746865207a65726f2061646460008201527f7265737300000000000000000000000000000000000000000000000000000000602082015250565b7f45524332303a2064656372656173656420616c6c6f77616e63652062656c6f7760008201527f207a65726f000000000000000000000000000000000000000000000000000000602082015250565b7f45524332303a206d696e7420746f20746865207a65726f206164647265737300600082015250565b611e8a8161198a565b8114611e9557600080fd5b50565b611ea1816119c8565b8114611eac57600080fd5b5056fea26469706673582212204404e5a9f8d4790bee9cc2df14d46761b98ed39cd18560e61fa528837ca52cd964736f6c63430008010033",
  "immutableReferences": {
    "785": [
      {
        "length": 32,
        "start": 1216
      }
    ]
  },
  "source": "\n// SPDX-License-Identifier: MIT\npragma solidity ^0.8.0;\nimport \"@openzeppelin/contracts/token/ERC20/extensions/ERC20Capped.sol\";\nimport \"@openzeppelin/contracts/access/Ownable.sol\";\n\ncontract LuciToken is ERC20Capped, Ownable {\n  // address[] internal stakeholders;\n  mapping(address => uint256) public stakeInitTime;\n  uint256 supplyCap = 100000000000*(10**9);\n\n  // Supply cap hardcoded at 100 Billion tokens\n  constructor() public ERC20(\"Luci Credits\", \"LUCI\") ERC20Capped(supplyCap) {\n    //_mint(orig, 25000000*(10**18)); //25% of 10.39 million inital supply to origin\n    //_mint(airdropBase, 10000*(10**18)); // testing dev address\n  }\n\n  uint256 TokenCounter = 0;\n// Onlyowner function to bulk transfer tokens to all addresses that participated in question generation in the last cycle\n  function IssueRewards(address[] memory addList, uint256[] memory balList) public onlyOwner {\n    uint len = addList.length;\n\n    for(uint i=0; i<len; i++){\n      address o1 = addList[i];\n      uint bal = balList[i];\n      uint bal1 = bal*10**9;\n      TokenCounter += bal1;\n        _mint(o1, bal1);\n     }\n  }\n\n// Only allows minting of 30% of total tokens issued as reward in the last reward phase, to treasury\n  function TransferTreasuryShare(address Treasury) public onlyOwner {\n    require(TokenCounter!=0, \"error: no rewards pending\");\n    uint256 TreasuryShare = (30*TokenCounter/100);\n    _mint(Treasury, TreasuryShare);\n    TokenCounter = 0;\n\n  }\n\n}\n",
  "sourcePath": "/Users/dm/Documents/luci/Luci-smart-contracts/contracts/LuciToken.sol",
  "compiler": {
    "name": "solc",
    "version": "0.8.1+commit.df193b15.Emscripten.clang"
  },
  "schemaVersion": "3.4.11",
  "updatedAt": "2023-01-03T22:29:54.455Z",
  "networkType": "ethereum",
  "devdoc": {
    "kind": "dev",
    "methods": {
      "allowance(address,address)": {
        "details": "See {IERC20-allowance}."
      },
      "approve(address,uint256)": {
        "details": "See {IERC20-approve}. NOTE: If `amount` is the maximum `uint256`, the allowance is not updated on `transferFrom`. This is semantically equivalent to an infinite approval. Requirements: - `spender` cannot be the zero address."
      },
      "balanceOf(address)": {
        "details": "See {IERC20-balanceOf}."
      },
      "cap()": {
        "details": "Returns the cap on the token's total supply."
      },
      "decimals()": {
        "details": "Returns the number of decimals used to get its user representation. For example, if `decimals` equals `2`, a balance of `505` tokens should be displayed to a user as `5.05` (`505 / 10 ** 2`). Tokens usually opt for a value of 18, imitating the relationship between Ether and Wei. This is the value {ERC20} uses, unless this function is overridden; NOTE: This information is only used for _display_ purposes: it in no way affects any of the arithmetic of the contract, including {IERC20-balanceOf} and {IERC20-transfer}."
      },
      "decreaseAllowance(address,uint256)": {
        "details": "Atomically decreases the allowance granted to `spender` by the caller. This is an alternative to {approve} that can be used as a mitigation for problems described in {IERC20-approve}. Emits an {Approval} event indicating the updated allowance. Requirements: - `spender` cannot be the zero address. - `spender` must have allowance for the caller of at least `subtractedValue`."
      },
      "increaseAllowance(address,uint256)": {
        "details": "Atomically increases the allowance granted to `spender` by the caller. This is an alternative to {approve} that can be used as a mitigation for problems described in {IERC20-approve}. Emits an {Approval} event indicating the updated allowance. Requirements: - `spender` cannot be the zero address."
      },
      "name()": {
        "details": "Returns the name of the token."
      },
      "owner()": {
        "details": "Returns the address of the current owner."
      },
      "renounceOwnership()": {
        "details": "Leaves the contract without owner. It will not be possible to call `onlyOwner` functions anymore. Can only be called by the current owner. NOTE: Renouncing ownership will leave the contract without an owner, thereby removing any functionality that is only available to the owner."
      },
      "symbol()": {
        "details": "Returns the symbol of the token, usually a shorter version of the name."
      },
      "totalSupply()": {
        "details": "See {IERC20-totalSupply}."
      },
      "transfer(address,uint256)": {
        "details": "See {IERC20-transfer}. Requirements: - `to` cannot be the zero address. - the caller must have a balance of at least `amount`."
      },
      "transferFrom(address,address,uint256)": {
        "details": "See {IERC20-transferFrom}. Emits an {Approval} event indicating the updated allowance. This is not required by the EIP. See the note at the beginning of {ERC20}. NOTE: Does not update the allowance if the current allowance is the maximum `uint256`. Requirements: - `from` and `to` cannot be the zero address. - `from` must have a balance of at least `amount`. - the caller must have allowance for ``from``'s tokens of at least `amount`."
      },
      "transferOwnership(address)": {
        "details": "Transfers ownership of the contract to a new account (`newOwner`). Can only be called by the current owner."
      }
    },
    "version": 1
  },
  "userdoc": {
    "kind": "user",
    "methods": {},
    "version": 1
  }
}